:10000000020570A9D7BA439650E595F5957E34FE62
:10001000B27E24007E7E1BB044507A1BB0E47E3456
:10002000FED07A1BB074777E34FED17A1BB0E47EAA
:1000300034FECD7A1BB07E14FECA7E04007E7E0B99
:10004000B044607A0BB07E14FECB7E0BB044607A75
:100050000BB07E1BB044117A1BB07E151F7E34FEA0
:10006000D97A1B207E34FEDA7A1B307E15217E344D
:10007000FEDB7A1B207E34FEDC7A1B307E15237E6D
:1000800034FED27A1B207E34FED37A1B307E34FEBF
:10009000B17E1BB044507A1BB07E34FEDD7E1BB0B7
:1000A00044807A1BB07E34FEC07E1BB044017A1BB4
:1000B000B022120609A9D7BA743F7E34FEA87E2466
:1000C000007E7A1BB075DE1F75BC80221204790297
:0200D00000032B
:1000D3000203BE12000380FE02041C7DC37DA27EC8
:1000E300B400177E9400ED0201274005E47AC9B0FD
:1000F300227AC9B00BC422540F2490D43440D43094
:10010300F30CBEB0414007BEB05B500224204CCC80
:1001130068021BC00B84D389944CCC680B742012E7
:10012300011180F5CA3B6D889F337CAE7EA9B00B6D
:10013300A47007C37D38DA3B8994B42569C2F37E82
:10014300A9B00BA4A5F824D0BEB00A501B7E500A58
:1001530020F60DAC5CA52D7CCB70034EF00180DD49
:10016300AC5DA52D7CDB80D524CFBEB01AA5E850AD
:10017300055E00DFD2F390038DA3E4936011BCB05E
:1001830078F77414934CAB30F6B34EF08080AEA383
:10019300E4936010BCB078F77413937C3B741D93A5
:1001A3007C2B89147CB08013742012011120F2057A
:1001B300BEC00250F31BB509BB00011201110201BD
:1001C3001C1BB50BB8104D1178047E14800020F26F
:1001D3001E4CCC681A7D31E47E39804C8868070B4D
:1001E3003404BCBD78F2C2F6CA191202EFDA197EE2
:1001F30019B060CACA19120111DA190B144CDD685F
:10020300EE1BD078EA80B77E101080037E10085E64
:10021300B05F800AD2F67E100A80057E100AC2F60D
:100223006D119F117E00201BB47EB97030F6021A47
:100233003720F1051BB47EB96030F6041A261A2460
:1002430030F0051BB50BB820A5EC3382F692F650BF
:100253000A7CEA9F229F217F127CAE4C44780F7C5C
:10026300457C567C676C772E00F878EF80122F114F
:100273007CB3337C3B9CB140047C3B0B70A5D8EE34
:100283007CB230E005DAB8C44C3BCA380B207E00A0
:10029300207E3000BE18000078C1BE1008780730F9
:1002A300F404C2F480B5CA287CB2BCBD38027CBD5C
:1002B3001202EFDA28BC2D500A1BD0E4CA28120020
:1002C300FA80F07CB213DAB84004C4CAB8C4CA28AE
:1002D300BEF08040095CDD7805A5DA0260065EF0B9
:1002E3007F1200FADA28A5DADA02011CBEF00168EF
:1002F3000F30F402240220F50620F70330F6010440
:1003030020F229BCBC5025CAB87CBF13B0E67420C8
:10031300501174307C8A5E80F0680812032F5EA04F
:100323000F8003120111DAB8BCBC78DB30F40F7410
:1003330030120111745830F302747812011130F63F
:1003430005742D020111742B20F5F8742020F7F3A6
:10035300221BB47EB9B010F1021BB420F60B30E7B8
:1003630004F404D2F27CCB800520E7057CDB020198
:10037300405EF07F80F81BB50BB81030F0076D229C
:100383001B18200B151B188002012B2D2B204C4210
:1003930048232E0053584F44494355502A4E0004D6
:1003A30020800102001040C40A0F1717B01E0A5420
:1003B3007901020202020102020303CA7BCA6BCA69
:1003C3005BCA4BCA2BCA1BCA0BC0D1C0D0C083C0E7
:1003D300827E14FEC57E04007E7E0BB030E1237E58
:1003E30034FED57E24007E7E1B707E54FED67E4472
:1003F300007E7E2B607E0BB054FD7A0BB07401122D
:1004030004D6D082D083D0D0D0D1DA0BDA1BDA2B4A
:10041300DA4BDA5BDA6BDA7B32CA7BCA6BCA5BCA4A
:100423004BCA2BCA1BCA0BC0D1C0D0C083C0827EAB
:1004330014FEE57E04007E7E0BB030E1227E34FEA6
:10044300F57E24007E7E1B707E54FEF67E44007E85
:100453007E2B607E0BB054FD7A0BB0E41204D6D031
:1004630082D083D0D0D0D1DA0BDA1BDA2BDA4BDA95
:100473005BDA6BDA7B32A9D7BA1205DFE47E34FE8E
:10048300EC7E24007E7A1BB07E14FEE87E04007EA0
:100493007E0BB044A17A0BB07E14FEE97E0BB04410
:1004A300A17A0BB07E1BB044117A1BB07E34FEE2FE
:1004B3007E1BB044037A1BB07E34FEE47E1BB04443
:1004C300027A1BB0D2AF7E34FEE07E1BB044017AC9
:1004D3001BB0227CA60A277E340100AD320A2A2DE6
:1004E300321468240478417E2519BD23280A7E1519
:1004F3001D1B147A151D800CBD2350087E251D0B72
:10050300247A251D7A3519227E2517BD23280A7ED4
:10051300151B1B147A151B800CBD2350087E251B4D
:100523000B247A251B7A3517227D037C5BBE0407D7
:10053300D038391B51681A0B5078317A051F7E3435
:10054300FED97E24007E7A1B007C317E34FEDA8065
:10055300147A05217E34FEDB7E24007E7A1B007C28
:10056300317E34FEDC7E24007E7A1B3022758401CA
:100573007E44041FE47A49B01B4478F97EF80024D2
:10058300751F037520E87521037522E87523077528
:1005930024D0751700751800751900751A00751B9E
:1005A30000751C00751D00751E000206267CA7B48D
:1005B300010ABEA000A9A1D1B3929022B402052ED4
:1005C300A0FF92932242BCE5BC30E5FB53BCDFE5C0
:1005D300BD7C4B6C55E5BE0A3B4D3222A9D7BA53BD
:1005E30092FE5391FE5396FC5395FC53CACF53C9C5
:1005F300CF22740E1205C874011205C874041205C3
:10060300C874050205C8A9D7BA539340759400531B
:10061300913275920022A9D7BA4392094391F653B6
:0F06230090F6221200D66D337E2480040200DE92
:00000001FF
